{
  "fileName": "StakingToken.sol",
  "contractName": "StakingToken",
  "source": "pragma solidity ^0.6.10;\n\n\nimport \"openzeppelin-solidity/contracts/token/ERC20/ERC20.sol\";\nimport \"openzeppelin-solidity/contracts/math/SafeMath.sol\";\nimport \"openzeppelin-solidity/contracts/access/Ownable.sol\";\nimport \"openzeppelin-solidity/contracts/token/ERC20/IERC20.sol\";\nimport \"openzeppelin-solidity/contracts/token/ERC20/SafeERC20.sol\";\n/*import \"openzeppelin-solidity/contracts/access/AccessControl.sol\";\nimport \"openzeppelin-solidity/contracts/GSN/Context.sol\"; */\n\n\n/**\n * @title Staking Token (STK)\n * @notice Implements a basic ERC20 staking token with incentive distribution.\n */\ncontract StakingToken is ERC20, Ownable {\n\n    using SafeMath for uint256;\n    using SafeERC20 for IERC20;\n\n\n    /**\n     * @notice We usually require to know who are all the stakeholders.\n     */\n    address[] internal stakeholders;\n\n    /**\n     * @notice The stakes for each stakeholder.\n     */\n    mapping(address => uint256) internal stakes;\n\n    /**\n     * @notice The accumulated rewards for each stakeholder.\n     */\n    mapping(address => uint256) internal rewards;\n\n\n\n    address public interest;\n\n\n    constructor (string memory name, string memory symbol,address  _interest)\n        ERC20(name, symbol)\n        public\n    {\n        // Mint 100 tokens to msg.sender\n        // Similar to how\n        // 1 dollar = 100 cents\n        // 1 token = 1 * (10 ** decimals)\n        //_mint(msg.sender, 500000000 * 10 ** uint(decimals()));\n        interest = _interest;\n    }\n\n    // ---------- STAKES ----------\n\n    /**\n     * @notice A method for a stakeholder to create a stake.\n     * @param _stake The size of the stake to be created.\n     */\n    function createStake(uint256 _stake)\n        public\n    {\n\n      (bool _isStakeholder, ) = isStakeholder(msg.sender);\n      if(!_isStakeholder){\n        _burn(msg.sender, _stake);\n        if(stakes[msg.sender] == 0) addStakeholder(msg.sender);\n        stakes[msg.sender] = stakes[msg.sender].add(_stake);\n      }\n    }\n\n    /**\n     * @notice A method for a stakeholder to remove a stake.\n     */\n    function removeStake()\n        public\n    {\n        //stakes[msg.sender] = stakes[msg.sender].sub(_stake);\n        uint256 _stakes = stakes[msg.sender];\n        stakes[msg.sender] = 0;\n        removeStakeholder(msg.sender);\n        _mint(msg.sender, _stakes);\n        _withdrawReward();\n    }\n\n    /**\n     * @notice A method to retrieve the stake for a stakeholder.\n     * @param _stakeholder The stakeholder to retrieve the stake for.\n     * @return uint256 The amount of wei staked.\n     */\n    function stakeOf(address _stakeholder)\n        public\n        view\n        returns(uint256)\n    {\n        return stakes[_stakeholder];\n    }\n\n\n    function GetStakes()\n        public\n        view\n        returns(address[] memory _stakeholders, uint256[] memory _stakes)\n    {\n      uint256[] memory newstakes = new uint256[](stakeholders.length);\n      for (uint256 s = 0; s < stakeholders.length; s += 1){\n          newstakes[s]= stakes[stakeholders[s]];\n      }\n      return (stakeholders,newstakes);\n    }\n\n    function GetRewards()\n        public\n        view\n        returns(address[] memory _stakeholders, uint256[] memory _rewards)\n    {\n      uint256[] memory newrewards = new uint256[](stakeholders.length);\n      for (uint256 s = 0; s < stakeholders.length; s += 1){\n          newrewards[s]= rewards[stakeholders[s]];\n      }\n      return (stakeholders,newrewards);\n    }\n\n\n\n\n\n    /**\n     * @notice A method to the aggregated stakes from all stakeholders.\n     * @return uint256 The aggregated stakes from all stakeholders.\n     */\n    function totalStakes()\n        public\n        view\n        returns(uint256)\n    {\n        uint256 _totalStakes = 0;\n        for (uint256 s = 0; s < stakeholders.length; s += 1){\n            _totalStakes = _totalStakes.add(stakes[stakeholders[s]]);\n        }\n        return _totalStakes;\n    }\n\n    // ---------- STAKEHOLDERS ----------\n\n    /**\n     * @notice A method to check if an address is a stakeholder.\n     * @param _address The address to verify.\n     * @return bool, uint256 Whether the address is a stakeholder,\n     * and if so its position in the stakeholders array.\n     */\n    function isStakeholder(address _address)\n        public\n        view\n        returns(bool, uint256)\n    {\n        for (uint256 s = 0; s < stakeholders.length; s += 1){\n            if (_address == stakeholders[s]) return (true, s);\n        }\n        return (false, 0);\n    }\n\n    /**\n     * @notice A method to add a stakeholder.\n     * @param _stakeholder The stakeholder to add.\n     */\n    function addStakeholder(address _stakeholder)\n        internal\n    {\n        (bool _isStakeholder, ) = isStakeholder(_stakeholder);\n        if(!_isStakeholder) stakeholders.push(_stakeholder);\n    }\n\n    /**\n     * @notice A method to remove a stakeholder.\n     * @param _stakeholder The stakeholder to remove.\n     */\n    function removeStakeholder(address _stakeholder)\n        internal\n    {\n        (bool _isStakeholder, uint256 s) = isStakeholder(_stakeholder);\n        if(_isStakeholder){\n            stakeholders[s] = stakeholders[stakeholders.length - 1];\n            stakeholders.pop();\n        }\n    }\n\n    // ---------- REWARDS ----------\n\n    /**\n     * @notice A method to allow a stakeholder to check his rewards.\n     * @param _stakeholder The stakeholder to check rewards for.\n     */\n    function rewardOf(address _stakeholder)\n        public\n        view\n        returns(uint256)\n    {\n        return rewards[_stakeholder];\n    }\n\n    /**\n     * @notice A method to the aggregated rewards from all stakeholders.\n     * @return uint256 The aggregated rewards from all stakeholders.\n     */\n    function totalRewards()\n        public\n        view\n        returns(uint256)\n    {\n        uint256 _totalRewards = 0;\n        for (uint256 s = 0; s < stakeholders.length; s += 1){\n            _totalRewards = _totalRewards.add(rewards[stakeholders[s]]);\n        }\n        return _totalRewards;\n    }\n\n\n\n\n    function BatchStakeholderAddRewards(address[] memory _stakeholders, uint256[] memory  _rewards)\n        public\n        onlyOwner\n    {\n\n      require(\n          _stakeholders.length == _rewards.length,\n          \"BatchStakeholderAddRewards: _stakeholders.length != _rewards.length\"\n      );\n\n      for (uint256 s = 0; s < _stakeholders.length; s += 1){\n         (bool _isStakeholder, ) = isStakeholder(_stakeholders[s]);\n        if(_isStakeholder){\n          address stakeholder = _stakeholders[s];\n          rewards[stakeholder] = rewards[stakeholder].add(_rewards[s]);\n          }\n        }\n    }\n\n    function BatchStakeholderSubRewards(address[] memory _stakeholders, uint256[] memory  _rewards)\n        public\n        onlyOwner\n    {\n\n      require(\n          _stakeholders.length == _rewards.length,\n          \"BatchStakeholderSubRewards: _stakeholders.length != _rewards.length\"\n      );\n\n      for (uint256 s = 0; s < _stakeholders.length; s += 1){\n        (bool _isStakeholder, ) = isStakeholder(_stakeholders[s]);\n       if(_isStakeholder){\n          address stakeholder = _stakeholders[s];\n          rewards[stakeholder] = rewards[stakeholder].sub(_rewards[s]);\n      }\n    }\n    }\n\n    function Mint(address  recipient, uint256 amount)\n        public\n        onlyOwner\n    {\n      _mint(recipient, amount);\n    }\n\n\n    function Burn(uint256 amount)\n        public\n    {\n      _burn(msg.sender, amount);\n    }\n\n    /**\n     * @notice A method to allow a stakeholder to withdraw his rewards.\n     */\n    function _withdrawReward()\n        internal\n    {\n        uint256 reward = rewards[msg.sender];\n        rewards[msg.sender] = 0;\n        //_mint(msg.sender, reward);\n\n        if(reward == 0) return;\n\n        require(\n            _doTransferOut(interest, msg.sender, reward),\n            \"transferFee: Token transfer out of contract failed.\"\n        );\n    }\n\n\n    function _doTransferOut(\n        address _token,\n        address _to,\n        uint256 _amount\n    ) internal returns (bool) {\n        IERC20 token = IERC20(_token);\n        bool result;\n\n        token.transfer(_to, _amount);\n\n        assembly {\n            switch returndatasize()\n                case 0 {\n                    result := not(0)\n                }\n                case 32 {\n                    returndatacopy(0, 0, 32)\n                    result := mload(0)\n                }\n                default {\n                    revert(0, 0)\n                }\n        }\n        return result;\n    }\n\n}\n",
  "sourcePath": "contracts/StakingToken.sol",
  "abi": [
    {
      "inputs": [
        {
          "internalType": "string",
          "name": "name",
          "type": "string"
        },
        {
          "internalType": "string",
          "name": "symbol",
          "type": "string"
        },
        {
          "internalType": "address",
          "name": "_interest",
          "type": "address"
        }
      ],
      "stateMutability": "nonpayable",
      "type": "constructor"
    },
    {
      "anonymous": false,
      "inputs": [
        {
          "indexed": true,
          "internalType": "address",
          "name": "owner",
          "type": "address"
        },
        {
          "indexed": true,
          "internalType": "address",
          "name": "spender",
          "type": "address"
        },
        {
          "indexed": false,
          "internalType": "uint256",
          "name": "value",
          "type": "uint256"
        }
      ],
      "name": "Approval",
      "type": "event"
    },
    {
      "anonymous": false,
      "inputs": [
        {
          "indexed": true,
          "internalType": "address",
          "name": "previousOwner",
          "type": "address"
        },
        {
          "indexed": true,
          "internalType": "address",
          "name": "newOwner",
          "type": "address"
        }
      ],
      "name": "OwnershipTransferred",
      "type": "event"
    },
    {
      "anonymous": false,
      "inputs": [
        {
          "indexed": true,
          "internalType": "address",
          "name": "from",
          "type": "address"
        },
        {
          "indexed": true,
          "internalType": "address",
          "name": "to",
          "type": "address"
        },
        {
          "indexed": false,
          "internalType": "uint256",
          "name": "value",
          "type": "uint256"
        }
      ],
      "name": "Transfer",
      "type": "event"
    },
    {
      "inputs": [
        {
          "internalType": "address[]",
          "name": "_stakeholders",
          "type": "address[]"
        },
        {
          "internalType": "uint256[]",
          "name": "_rewards",
          "type": "uint256[]"
        }
      ],
      "name": "BatchStakeholderAddRewards",
      "outputs": [],
      "stateMutability": "nonpayable",
      "type": "function"
    },
    {
      "inputs": [
        {
          "internalType": "address[]",
          "name": "_stakeholders",
          "type": "address[]"
        },
        {
          "internalType": "uint256[]",
          "name": "_rewards",
          "type": "uint256[]"
        }
      ],
      "name": "BatchStakeholderSubRewards",
      "outputs": [],
      "stateMutability": "nonpayable",
      "type": "function"
    },
    {
      "inputs": [
        {
          "internalType": "uint256",
          "name": "amount",
          "type": "uint256"
        }
      ],
      "name": "Burn",
      "outputs": [],
      "stateMutability": "nonpayable",
      "type": "function"
    },
    {
      "inputs": [],
      "name": "GetRewards",
      "outputs": [
        {
          "internalType": "address[]",
          "name": "_stakeholders",
          "type": "address[]"
        },
        {
          "internalType": "uint256[]",
          "name": "_rewards",
          "type": "uint256[]"
        }
      ],
      "stateMutability": "view",
      "type": "function"
    },
    {
      "inputs": [],
      "name": "GetStakes",
      "outputs": [
        {
          "internalType": "address[]",
          "name": "_stakeholders",
          "type": "address[]"
        },
        {
          "internalType": "uint256[]",
          "name": "_stakes",
          "type": "uint256[]"
        }
      ],
      "stateMutability": "view",
      "type": "function"
    },
    {
      "inputs": [
        {
          "internalType": "address",
          "name": "recipient",
          "type": "address"
        },
        {
          "internalType": "uint256",
          "name": "amount",
          "type": "uint256"
        }
      ],
      "name": "Mint",
      "outputs": [],
      "stateMutability": "nonpayable",
      "type": "function"
    },
    {
      "inputs": [
        {
          "internalType": "address",
          "name": "owner",
          "type": "address"
        },
        {
          "internalType": "address",
          "name": "spender",
          "type": "address"
        }
      ],
      "name": "allowance",
      "outputs": [
        {
          "internalType": "uint256",
          "name": "",
          "type": "uint256"
        }
      ],
      "stateMutability": "view",
      "type": "function"
    },
    {
      "inputs": [
        {
          "internalType": "address",
          "name": "spender",
          "type": "address"
        },
        {
          "internalType": "uint256",
          "name": "amount",
          "type": "uint256"
        }
      ],
      "name": "approve",
      "outputs": [
        {
          "internalType": "bool",
          "name": "",
          "type": "bool"
        }
      ],
      "stateMutability": "nonpayable",
      "type": "function"
    },
    {
      "inputs": [
        {
          "internalType": "address",
          "name": "account",
          "type": "address"
        }
      ],
      "name": "balanceOf",
      "outputs": [
        {
          "internalType": "uint256",
          "name": "",
          "type": "uint256"
        }
      ],
      "stateMutability": "view",
      "type": "function"
    },
    {
      "inputs": [
        {
          "internalType": "uint256",
          "name": "_stake",
          "type": "uint256"
        }
      ],
      "name": "createStake",
      "outputs": [],
      "stateMutability": "nonpayable",
      "type": "function"
    },
    {
      "inputs": [],
      "name": "decimals",
      "outputs": [
        {
          "internalType": "uint8",
          "name": "",
          "type": "uint8"
        }
      ],
      "stateMutability": "view",
      "type": "function"
    },
    {
      "inputs": [
        {
          "internalType": "address",
          "name": "spender",
          "type": "address"
        },
        {
          "internalType": "uint256",
          "name": "subtractedValue",
          "type": "uint256"
        }
      ],
      "name": "decreaseAllowance",
      "outputs": [
        {
          "internalType": "bool",
          "name": "",
          "type": "bool"
        }
      ],
      "stateMutability": "nonpayable",
      "type": "function"
    },
    {
      "inputs": [
        {
          "internalType": "address",
          "name": "spender",
          "type": "address"
        },
        {
          "internalType": "uint256",
          "name": "addedValue",
          "type": "uint256"
        }
      ],
      "name": "increaseAllowance",
      "outputs": [
        {
          "internalType": "bool",
          "name": "",
          "type": "bool"
        }
      ],
      "stateMutability": "nonpayable",
      "type": "function"
    },
    {
      "inputs": [],
      "name": "interest",
      "outputs": [
        {
          "internalType": "address",
          "name": "",
          "type": "address"
        }
      ],
      "stateMutability": "view",
      "type": "function"
    },
    {
      "inputs": [
        {
          "internalType": "address",
          "name": "_address",
          "type": "address"
        }
      ],
      "name": "isStakeholder",
      "outputs": [
        {
          "internalType": "bool",
          "name": "",
          "type": "bool"
        },
        {
          "internalType": "uint256",
          "name": "",
          "type": "uint256"
        }
      ],
      "stateMutability": "view",
      "type": "function"
    },
    {
      "inputs": [],
      "name": "name",
      "outputs": [
        {
          "internalType": "string",
          "name": "",
          "type": "string"
        }
      ],
      "stateMutability": "view",
      "type": "function"
    },
    {
      "inputs": [],
      "name": "owner",
      "outputs": [
        {
          "internalType": "address",
          "name": "",
          "type": "address"
        }
      ],
      "stateMutability": "view",
      "type": "function"
    },
    {
      "inputs": [],
      "name": "removeStake",
      "outputs": [],
      "stateMutability": "nonpayable",
      "type": "function"
    },
    {
      "inputs": [],
      "name": "renounceOwnership",
      "outputs": [],
      "stateMutability": "nonpayable",
      "type": "function"
    },
    {
      "inputs": [
        {
          "internalType": "address",
          "name": "_stakeholder",
          "type": "address"
        }
      ],
      "name": "rewardOf",
      "outputs": [
        {
          "internalType": "uint256",
          "name": "",
          "type": "uint256"
        }
      ],
      "stateMutability": "view",
      "type": "function"
    },
    {
      "inputs": [
        {
          "internalType": "address",
          "name": "_stakeholder",
          "type": "address"
        }
      ],
      "name": "stakeOf",
      "outputs": [
        {
          "internalType": "uint256",
          "name": "",
          "type": "uint256"
        }
      ],
      "stateMutability": "view",
      "type": "function"
    },
    {
      "inputs": [],
      "name": "symbol",
      "outputs": [
        {
          "internalType": "string",
          "name": "",
          "type": "string"
        }
      ],
      "stateMutability": "view",
      "type": "function"
    },
    {
      "inputs": [],
      "name": "totalRewards",
      "outputs": [
        {
          "internalType": "uint256",
          "name": "",
          "type": "uint256"
        }
      ],
      "stateMutability": "view",
      "type": "function"
    },
    {
      "inputs": [],
      "name": "totalStakes",
      "outputs": [
        {
          "internalType": "uint256",
          "name": "",
          "type": "uint256"
        }
      ],
      "stateMutability": "view",
      "type": "function"
    },
    {
      "inputs": [],
      "name": "totalSupply",
      "outputs": [
        {
          "internalType": "uint256",
          "name": "",
          "type": "uint256"
        }
      ],
      "stateMutability": "view",
      "type": "function"
    },
    {
      "inputs": [
        {
          "internalType": "address",
          "name": "recipient",
          "type": "address"
        },
        {
          "internalType": "uint256",
          "name": "amount",
          "type": "uint256"
        }
      ],
      "name": "transfer",
      "outputs": [
        {
          "internalType": "bool",
          "name": "",
          "type": "bool"
        }
      ],
      "stateMutability": "nonpayable",
      "type": "function"
    },
    {
      "inputs": [
        {
          "internalType": "address",
          "name": "sender",
          "type": "address"
        },
        {
          "internalType": "address",
          "name": "recipient",
          "type": "address"
        },
        {
          "internalType": "uint256",
          "name": "amount",
          "type": "uint256"
        }
      ],
      "name": "transferFrom",
      "outputs": [
        {
          "internalType": "bool",
          "name": "",
          "type": "bool"
        }
      ],
      "stateMutability": "nonpayable",
      "type": "function"
    },
    {
      "inputs": [
        {
          "internalType": "address",
          "name": "newOwner",
          "type": "address"
        }
      ],
      "name": "transferOwnership",
      "outputs": [],
      "stateMutability": "nonpayable",
      "type": "function"
    }
  ],
  "bytecode": "0x60806040523480156200001157600080fd5b506040516200357038038062003570833981810160405260608110156200003757600080fd5b81019080805160405193929190846401000000008211156200005857600080fd5b838201915060208201858111156200006f57600080fd5b82518660018202830111640100000000821117156200008d57600080fd5b8083526020830192505050908051906020019080838360005b83811015620000c3578082015181840152602081019050620000a6565b50505050905090810190601f168015620000f15780820380516001836020036101000a031916815260200191505b50604052602001805160405193929190846401000000008211156200011557600080fd5b838201915060208201858111156200012c57600080fd5b82518660018202830111640100000000821117156200014a57600080fd5b8083526020830192505050908051906020019080838360005b838110156200018057808201518184015260208101905062000163565b50505050905090810190601f168015620001ae5780820380516001836020036101000a031916815260200191505b506040526020018051906020019092919050505082828160039080519060200190620001dc92919062000317565b508060049080519060200190620001f592919062000317565b506012600560006101000a81548160ff021916908360ff16021790555050506000620002266200030f60201b60201c565b905080600560016101000a81548173ffffffffffffffffffffffffffffffffffffffff021916908373ffffffffffffffffffffffffffffffffffffffff1602179055508073ffffffffffffffffffffffffffffffffffffffff16600073ffffffffffffffffffffffffffffffffffffffff167f8be0079c531659141344cd1fd0a4f28419497f9722a3daafe3b4186f6b6457e060405160405180910390a35080600960006101000a81548173ffffffffffffffffffffffffffffffffffffffff021916908373ffffffffffffffffffffffffffffffffffffffff160217905550505050620003bd565b600033905090565b828054600181600116156101000203166002900490600052602060002090601f016020900481019282601f106200035a57805160ff19168380011785556200038b565b828001600101855582156200038b579182015b828111156200038a5782518255916020019190600101906200036d565b5b5090506200039a91906200039e565b5090565b5b80821115620003b95760008160009055506001016200039f565b5090565b6131a380620003cd6000396000f3fe608060405234801561001057600080fd5b50600436106101c45760003560e01c806378ad2320116100f9578063b90306ad11610097578063c392f76611610071578063c392f76614610b3e578063dd62ed3e14610b72578063ef037b9014610bea578063f2fde38b14610c4b576101c4565b8063b90306ad14610a4b578063bf9befb114610a79578063c26b960014610a97576101c4565b806395d89b41116100d357806395d89b41146108f65780639c91b77914610979578063a457c2d714610983578063a9059cbb146109e7576101c4565b806378ad23201461062a57806384a1eaa8146107765780638da5cb5b146108c2576101c4565b806323b872dd11610166578063426233601161014057806342623360146104c957806365a065e11461052157806370a08231146105c8578063715018a614610620576101c4565b806323b872dd146103c0578063313ce567146104445780633950935114610465576101c4565b80630f6798a5116101a25780630f6798a5146102ce57806318160ddd1461031c5780631bf6ddae1461033a5780631d62ebd914610368576101c4565b806306fdde03146101c9578063095ea7b31461024c5780630e15561a146102b0575b600080fd5b6101d1610c8f565b6040518080602001828103825283818151815260200191508051906020019080838360005b838110156102115780820151818401526020810190506101f6565b50505050905090810190601f16801561023e5780820380516001836020036101000a031916815260200191505b509250505060405180910390f35b6102986004803603604081101561026257600080fd5b81019080803573ffffffffffffffffffffffffffffffffffffffff16906020019092919080359060200190929190505050610d31565b60405180821515815260200191505060405180910390f35b6102b8610d4f565b6040518082815260200191505060405180910390f35b61031a600480360360408110156102e457600080fd5b81019080803573ffffffffffffffffffffffffffffffffffffffff16906020019092919080359060200190929190505050610e04565b005b610324610edc565b6040518082815260200191505060405180910390f35b6103666004803603602081101561035057600080fd5b8101908080359060200190929190505050610ee6565b005b6103aa6004803603602081101561037e57600080fd5b81019080803573ffffffffffffffffffffffffffffffffffffffff169060200190929190505050610fef565b6040518082815260200191505060405180910390f35b61042c600480360360608110156103d657600080fd5b81019080803573ffffffffffffffffffffffffffffffffffffffff169060200190929190803573ffffffffffffffffffffffffffffffffffffffff16906020019092919080359060200190929190505050611038565b60405180821515815260200191505060405180910390f35b61044c611111565b604051808260ff16815260200191505060405180910390f35b6104b16004803603604081101561047b57600080fd5b81019080803573ffffffffffffffffffffffffffffffffffffffff16906020019092919080359060200190929190505050611128565b60405180821515815260200191505060405180910390f35b61050b600480360360208110156104df57600080fd5b81019080803573ffffffffffffffffffffffffffffffffffffffff1690602001909291905050506111db565b6040518082815260200191505060405180910390f35b610529611224565b604051808060200180602001838103835285818151815260200191508051906020019060200280838360005b83811015610570578082015181840152602081019050610555565b50505050905001838103825284818151815260200191508051906020019060200280838360005b838110156105b2578082015181840152602081019050610597565b5050505090500194505050505060405180910390f35b61060a600480360360208110156105de57600080fd5b81019080803573ffffffffffffffffffffffffffffffffffffffff1690602001909291905050506113b6565b6040518082815260200191505060405180910390f35b6106286113fe565b005b6107746004803603604081101561064057600080fd5b810190808035906020019064010000000081111561065d57600080fd5b82018360208201111561066f57600080fd5b8035906020019184602083028401116401000000008311171561069157600080fd5b919080806020026020016040519081016040528093929190818152602001838360200280828437600081840152601f19601f820116905080830192505050505050509192919290803590602001906401000000008111156106f157600080fd5b82018360208201111561070357600080fd5b8035906020019184602083028401116401000000008311171561072557600080fd5b919080806020026020016040519081016040528093929190818152602001838360200280828437600081840152601f19601f820116905080830192505050505050509192919290505050611589565b005b6108c06004803603604081101561078c57600080fd5b81019080803590602001906401000000008111156107a957600080fd5b8201836020820111156107bb57600080fd5b803590602001918460208302840111640100000000831117156107dd57600080fd5b919080806020026020016040519081016040528093929190818152602001838360200280828437600081840152601f19601f8201169050808301925050505050505091929192908035906020019064010000000081111561083d57600080fd5b82018360208201111561084f57600080fd5b8035906020019184602083028401116401000000008311171561087157600080fd5b919080806020026020016040519081016040528093929190818152602001838360200280828437600081840152601f19601f8201169050808301925050505050505091929192905050506117b3565b005b6108ca6119dd565b604051808273ffffffffffffffffffffffffffffffffffffffff16815260200191505060405180910390f35b6108fe611a07565b6040518080602001828103825283818151815260200191508051906020019080838360005b8381101561093e578082015181840152602081019050610923565b50505050905090810190601f16801561096b5780820380516001836020036101000a031916815260200191505b509250505060405180910390f35b610981611aa9565b005b6109cf6004803603604081101561099957600080fd5b81019080803573ffffffffffffffffffffffffffffffffffffffff16906020019092919080359060200190929190505050611b50565b60405180821515815260200191505060405180910390f35b610a33600480360360408110156109fd57600080fd5b81019080803573ffffffffffffffffffffffffffffffffffffffff16906020019092919080359060200190929190505050611c1d565b60405180821515815260200191505060405180910390f35b610a7760048036036020811015610a6157600080fd5b8101908080359060200190929190505050611c3b565b005b610a81611c48565b6040518082815260200191505060405180910390f35b610a9f611cfd565b604051808060200180602001838103835285818151815260200191508051906020019060200280838360005b83811015610ae6578082015181840152602081019050610acb565b50505050905001838103825284818151815260200191508051906020019060200280838360005b83811015610b28578082015181840152602081019050610b0d565b5050505090500194505050505060405180910390f35b610b46611e8f565b604051808273ffffffffffffffffffffffffffffffffffffffff16815260200191505060405180910390f35b610bd460048036036040811015610b8857600080fd5b81019080803573ffffffffffffffffffffffffffffffffffffffff169060200190929190803573ffffffffffffffffffffffffffffffffffffffff169060200190929190505050611eb5565b6040518082815260200191505060405180910390f35b610c2c60048036036020811015610c0057600080fd5b81019080803573ffffffffffffffffffffffffffffffffffffffff169060200190929190505050611f3c565b6040518083151581526020018281526020019250505060405180910390f35b610c8d60048036036020811015610c6157600080fd5b81019080803573ffffffffffffffffffffffffffffffffffffffff169060200190929190505050611fe0565b005b606060038054600181600116156101000203166002900480601f016020809104026020016040519081016040528092919081815260200182805460018160011615610100020316600290048015610d275780601f10610cfc57610100808354040283529160200191610d27565b820191906000526020600020905b815481529060010190602001808311610d0a57829003601f168201915b5050505050905090565b6000610d45610d3e6121f0565b84846121f8565b6001905092915050565b6000806000905060005b600680549050811015610dfc57610def6008600060068481548110610d7a57fe5b9060005260206000200160009054906101000a900473ffffffffffffffffffffffffffffffffffffffff1673ffffffffffffffffffffffffffffffffffffffff1673ffffffffffffffffffffffffffffffffffffffff16815260200190815260200160002054836123ef90919063ffffffff16565b9150600181019050610d59565b508091505090565b610e0c6121f0565b73ffffffffffffffffffffffffffffffffffffffff16600560019054906101000a900473ffffffffffffffffffffffffffffffffffffffff1673ffffffffffffffffffffffffffffffffffffffff1614610ece576040517f08c379a00000000000000000000000000000000000000000000000000000000081526004018080602001828103825260208152602001807f4f776e61626c653a2063616c6c6572206973206e6f7420746865206f776e657281525060200191505060405180910390fd5b610ed88282612477565b5050565b6000600254905090565b6000610ef133611f3c565b50905080610feb57610f03338361263e565b6000600760003373ffffffffffffffffffffffffffffffffffffffff1673ffffffffffffffffffffffffffffffffffffffff168152602001908152602001600020541415610f5557610f5433612802565b5b610fa782600760003373ffffffffffffffffffffffffffffffffffffffff1673ffffffffffffffffffffffffffffffffffffffff168152602001908152602001600020546123ef90919063ffffffff16565b600760003373ffffffffffffffffffffffffffffffffffffffff1673ffffffffffffffffffffffffffffffffffffffff168152602001908152602001600020819055505b5050565b6000600860008373ffffffffffffffffffffffffffffffffffffffff1673ffffffffffffffffffffffffffffffffffffffff168152602001908152602001600020549050919050565b600061104584848461287d565b611106846110516121f0565b6111018560405180606001604052806028815260200161303160289139600160008b73ffffffffffffffffffffffffffffffffffffffff1673ffffffffffffffffffffffffffffffffffffffff16815260200190815260200160002060006110b76121f0565b73ffffffffffffffffffffffffffffffffffffffff1673ffffffffffffffffffffffffffffffffffffffff16815260200190815260200160002054612b3e9092919063ffffffff16565b6121f8565b600190509392505050565b6000600560009054906101000a900460ff16905090565b60006111d16111356121f0565b846111cc85600160006111466121f0565b73ffffffffffffffffffffffffffffffffffffffff1673ffffffffffffffffffffffffffffffffffffffff16815260200190815260200160002060008973ffffffffffffffffffffffffffffffffffffffff1673ffffffffffffffffffffffffffffffffffffffff168152602001908152602001600020546123ef90919063ffffffff16565b6121f8565b6001905092915050565b6000600760008373ffffffffffffffffffffffffffffffffffffffff1673ffffffffffffffffffffffffffffffffffffffff168152602001908152602001600020549050919050565b606080606060068054905067ffffffffffffffff8111801561124557600080fd5b506040519080825280602002602001820160405280156112745781602001602082028036833780820191505090505b50905060005b60068054905081101561132157600760006006838154811061129857fe5b9060005260206000200160009054906101000a900473ffffffffffffffffffffffffffffffffffffffff1673ffffffffffffffffffffffffffffffffffffffff1673ffffffffffffffffffffffffffffffffffffffff1681526020019081526020016000205482828151811061130a57fe5b60200260200101818152505060018101905061127a565b50600681818054806020026020016040519081016040528092919081815260200182805480156113a657602002820191906000526020600020905b8160009054906101000a900473ffffffffffffffffffffffffffffffffffffffff1673ffffffffffffffffffffffffffffffffffffffff168152602001906001019080831161135c575b5050505050915092509250509091565b60008060008373ffffffffffffffffffffffffffffffffffffffff1673ffffffffffffffffffffffffffffffffffffffff168152602001908152602001600020549050919050565b6114066121f0565b73ffffffffffffffffffffffffffffffffffffffff16600560019054906101000a900473ffffffffffffffffffffffffffffffffffffffff1673ffffffffffffffffffffffffffffffffffffffff16146114c8576040517f08c379a00000000000000000000000000000000000000000000000000000000081526004018080602001828103825260208152602001807f4f776e61626c653a2063616c6c6572206973206e6f7420746865206f776e657281525060200191505060405180910390fd5b600073ffffffffffffffffffffffffffffffffffffffff16600560019054906101000a900473ffffffffffffffffffffffffffffffffffffffff1673ffffffffffffffffffffffffffffffffffffffff167f8be0079c531659141344cd1fd0a4f28419497f9722a3daafe3b4186f6b6457e060405160405180910390a36000600560016101000a81548173ffffffffffffffffffffffffffffffffffffffff021916908373ffffffffffffffffffffffffffffffffffffffff160217905550565b6115916121f0565b73ffffffffffffffffffffffffffffffffffffffff16600560019054906101000a900473ffffffffffffffffffffffffffffffffffffffff1673ffffffffffffffffffffffffffffffffffffffff1614611653576040517f08c379a00000000000000000000000000000000000000000000000000000000081526004018080602001828103825260208152602001807f4f776e61626c653a2063616c6c6572206973206e6f7420746865206f776e657281525060200191505060405180910390fd5b80518251146116ad576040517f08c379a00000000000000000000000000000000000000000000000000000000081526004018080602001828103825260438152602001806130596043913960600191505060405180910390fd5b60005b82518110156117ae5760006116d78483815181106116ca57fe5b6020026020010151611f3c565b50905080156117a25760008483815181106116ee57fe5b6020026020010151905061175d84848151811061170757fe5b6020026020010151600860008473ffffffffffffffffffffffffffffffffffffffff1673ffffffffffffffffffffffffffffffffffffffff168152602001908152602001600020546123ef90919063ffffffff16565b600860008373ffffffffffffffffffffffffffffffffffffffff1673ffffffffffffffffffffffffffffffffffffffff16815260200190815260200160002081905550505b506001810190506116b0565b505050565b6117bb6121f0565b73ffffffffffffffffffffffffffffffffffffffff16600560019054906101000a900473ffffffffffffffffffffffffffffffffffffffff1673ffffffffffffffffffffffffffffffffffffffff161461187d576040517f08c379a00000000000000000000000000000000000000000000000000000000081526004018080602001828103825260208152602001807f4f776e61626c653a2063616c6c6572206973206e6f7420746865206f776e657281525060200191505060405180910390fd5b80518251146118d7576040517f08c379a00000000000000000000000000000000000000000000000000000000081526004018080602001828103825260438152602001806131066043913960600191505060405180910390fd5b60005b82518110156119d85760006119018483815181106118f457fe5b6020026020010151611f3c565b50905080156119cc57600084838151811061191857fe5b6020026020010151905061198784848151811061193157fe5b6020026020010151600860008473ffffffffffffffffffffffffffffffffffffffff1673ffffffffffffffffffffffffffffffffffffffff16815260200190815260200160002054612bfe90919063ffffffff16565b600860008373ffffffffffffffffffffffffffffffffffffffff1673ffffffffffffffffffffffffffffffffffffffff16815260200190815260200160002081905550505b506001810190506118da565b505050565b6000600560019054906101000a900473ffffffffffffffffffffffffffffffffffffffff16905090565b606060048054600181600116156101000203166002900480601f016020809104026020016040519081016040528092919081815260200182805460018160011615610100020316600290048015611a9f5780601f10611a7457610100808354040283529160200191611a9f565b820191906000526020600020905b815481529060010190602001808311611a8257829003601f168201915b5050505050905090565b6000600760003373ffffffffffffffffffffffffffffffffffffffff1673ffffffffffffffffffffffffffffffffffffffff1681526020019081526020016000205490506000600760003373ffffffffffffffffffffffffffffffffffffffff1673ffffffffffffffffffffffffffffffffffffffff16815260200190815260200160002081905550611b3b33612c48565b611b453382612477565b611b4d612d39565b50565b6000611c13611b5d6121f0565b84611c0e856040518060600160405280602581526020016131496025913960016000611b876121f0565b73ffffffffffffffffffffffffffffffffffffffff1673ffffffffffffffffffffffffffffffffffffffff16815260200190815260200160002060008a73ffffffffffffffffffffffffffffffffffffffff1673ffffffffffffffffffffffffffffffffffffffff16815260200190815260200160002054612b3e9092919063ffffffff16565b6121f8565b6001905092915050565b6000611c31611c2a6121f0565b848461287d565b6001905092915050565b611c45338261263e565b50565b6000806000905060005b600680549050811015611cf557611ce86007600060068481548110611c7357fe5b9060005260206000200160009054906101000a900473ffffffffffffffffffffffffffffffffffffffff1673ffffffffffffffffffffffffffffffffffffffff1673ffffffffffffffffffffffffffffffffffffffff16815260200190815260200160002054836123ef90919063ffffffff16565b9150600181019050611c52565b508091505090565b606080606060068054905067ffffffffffffffff81118015611d1e57600080fd5b50604051908082528060200260200182016040528015611d4d5781602001602082028036833780820191505090505b50905060005b600680549050811015611dfa576008600060068381548110611d7157fe5b9060005260206000200160009054906101000a900473ffffffffffffffffffffffffffffffffffffffff1673ffffffffffffffffffffffffffffffffffffffff1673ffffffffffffffffffffffffffffffffffffffff16815260200190815260200160002054828281518110611de357fe5b602002602001018181525050600181019050611d53565b5060068181805480602002602001604051908101604052809291908181526020018280548015611e7f57602002820191906000526020600020905b8160009054906101000a900473ffffffffffffffffffffffffffffffffffffffff1673ffffffffffffffffffffffffffffffffffffffff1681526020019060010190808311611e35575b5050505050915092509250509091565b600960009054906101000a900473ffffffffffffffffffffffffffffffffffffffff1681565b6000600160008473ffffffffffffffffffffffffffffffffffffffff1673ffffffffffffffffffffffffffffffffffffffff16815260200190815260200160002060008373ffffffffffffffffffffffffffffffffffffffff1673ffffffffffffffffffffffffffffffffffffffff16815260200190815260200160002054905092915050565b60008060005b600680549050811015611fd25760068181548110611f5c57fe5b9060005260206000200160009054906101000a900473ffffffffffffffffffffffffffffffffffffffff1673ffffffffffffffffffffffffffffffffffffffff168473ffffffffffffffffffffffffffffffffffffffff161415611fc7576001819250925050611fdb565b600181019050611f42565b50600080915091505b915091565b611fe86121f0565b73ffffffffffffffffffffffffffffffffffffffff16600560019054906101000a900473ffffffffffffffffffffffffffffffffffffffff1673ffffffffffffffffffffffffffffffffffffffff16146120aa576040517f08c379a00000000000000000000000000000000000000000000000000000000081526004018080602001828103825260208152602001807f4f776e61626c653a2063616c6c6572206973206e6f7420746865206f776e657281525060200191505060405180910390fd5b600073ffffffffffffffffffffffffffffffffffffffff168173ffffffffffffffffffffffffffffffffffffffff161415612130576040517f08c379a0000000000000000000000000000000000000000000000000000000008152600401808060200182810382526026815260200180612f906026913960400191505060405180910390fd5b8073ffffffffffffffffffffffffffffffffffffffff16600560019054906101000a900473ffffffffffffffffffffffffffffffffffffffff1673ffffffffffffffffffffffffffffffffffffffff167f8be0079c531659141344cd1fd0a4f28419497f9722a3daafe3b4186f6b6457e060405160405180910390a380600560016101000a81548173ffffffffffffffffffffffffffffffffffffffff021916908373ffffffffffffffffffffffffffffffffffffffff16021790555050565b600033905090565b600073ffffffffffffffffffffffffffffffffffffffff168373ffffffffffffffffffffffffffffffffffffffff16141561227e576040517f08c379a00000000000000000000000000000000000000000000000000000000081526004018080602001828103825260248152602001806130e26024913960400191505060405180910390fd5b600073ffffffffffffffffffffffffffffffffffffffff168273ffffffffffffffffffffffffffffffffffffffff161415612304576040517f08c379a0000000000000000000000000000000000000000000000000000000008152600401808060200182810382526022815260200180612fb66022913960400191505060405180910390fd5b80600160008573ffffffffffffffffffffffffffffffffffffffff1673ffffffffffffffffffffffffffffffffffffffff16815260200190815260200160002060008473ffffffffffffffffffffffffffffffffffffffff1673ffffffffffffffffffffffffffffffffffffffff168152602001908152602001600020819055508173ffffffffffffffffffffffffffffffffffffffff168373ffffffffffffffffffffffffffffffffffffffff167f8c5be1e5ebec7d5bd14f71427d1e84f3dd0314c0f7b2291e5b200ac8c7c3b925836040518082815260200191505060405180910390a3505050565b60008082840190508381101561246d576040517f08c379a000000000000000000000000000000000000000000000000000000000815260040180806020018281038252601b8152602001807f536166654d6174683a206164646974696f6e206f766572666c6f77000000000081525060200191505060405180910390fd5b8091505092915050565b600073ffffffffffffffffffffffffffffffffffffffff168273ffffffffffffffffffffffffffffffffffffffff16141561251a576040517f08c379a000000000000000000000000000000000000000000000000000000000815260040180806020018281038252601f8152602001807f45524332303a206d696e7420746f20746865207a65726f20616464726573730081525060200191505060405180910390fd5b61252660008383612e57565b61253b816002546123ef90919063ffffffff16565b600281905550612592816000808573ffffffffffffffffffffffffffffffffffffffff1673ffffffffffffffffffffffffffffffffffffffff168152602001908152602001600020546123ef90919063ffffffff16565b6000808473ffffffffffffffffffffffffffffffffffffffff1673ffffffffffffffffffffffffffffffffffffffff168152602001908152602001600020819055508173ffffffffffffffffffffffffffffffffffffffff16600073ffffffffffffffffffffffffffffffffffffffff167fddf252ad1be2c89b69c2b068fc378daa952ba7f163c4a11628f55a4df523b3ef836040518082815260200191505060405180910390a35050565b600073ffffffffffffffffffffffffffffffffffffffff168273ffffffffffffffffffffffffffffffffffffffff1614156126c4576040517f08c379a000000000000000000000000000000000000000000000000000000000815260040180806020018281038252602181526020018061309c6021913960400191505060405180910390fd5b6126d082600083612e57565b61273b81604051806060016040528060228152602001612f6e602291396000808673ffffffffffffffffffffffffffffffffffffffff1673ffffffffffffffffffffffffffffffffffffffff16815260200190815260200160002054612b3e9092919063ffffffff16565b6000808473ffffffffffffffffffffffffffffffffffffffff1673ffffffffffffffffffffffffffffffffffffffff1681526020019081526020016000208190555061279281600254612bfe90919063ffffffff16565b600281905550600073ffffffffffffffffffffffffffffffffffffffff168273ffffffffffffffffffffffffffffffffffffffff167fddf252ad1be2c89b69c2b068fc378daa952ba7f163c4a11628f55a4df523b3ef836040518082815260200191505060405180910390a35050565b600061280d82611f3c565b50905080612879576006829080600181540180825580915050600190039060005260206000200160009091909190916101000a81548173ffffffffffffffffffffffffffffffffffffffff021916908373ffffffffffffffffffffffffffffffffffffffff1602179055505b5050565b600073ffffffffffffffffffffffffffffffffffffffff168373ffffffffffffffffffffffffffffffffffffffff161415612903576040517f08c379a00000000000000000000000000000000000000000000000000000000081526004018080602001828103825260258152602001806130bd6025913960400191505060405180910390fd5b600073ffffffffffffffffffffffffffffffffffffffff168273ffffffffffffffffffffffffffffffffffffffff161415612989576040517f08c379a0000000000000000000000000000000000000000000000000000000008152600401808060200182810382526023815260200180612f4b6023913960400191505060405180910390fd5b612994838383612e57565b6129ff81604051806060016040528060268152602001612fd8602691396000808773ffffffffffffffffffffffffffffffffffffffff1673ffffffffffffffffffffffffffffffffffffffff16815260200190815260200160002054612b3e9092919063ffffffff16565b6000808573ffffffffffffffffffffffffffffffffffffffff1673ffffffffffffffffffffffffffffffffffffffff16815260200190815260200160002081905550612a92816000808573ffffffffffffffffffffffffffffffffffffffff1673ffffffffffffffffffffffffffffffffffffffff168152602001908152602001600020546123ef90919063ffffffff16565b6000808473ffffffffffffffffffffffffffffffffffffffff1673ffffffffffffffffffffffffffffffffffffffff168152602001908152602001600020819055508173ffffffffffffffffffffffffffffffffffffffff168373ffffffffffffffffffffffffffffffffffffffff167fddf252ad1be2c89b69c2b068fc378daa952ba7f163c4a11628f55a4df523b3ef836040518082815260200191505060405180910390a3505050565b6000838311158290612beb576040517f08c379a00000000000000000000000000000000000000000000000000000000081526004018080602001828103825283818151815260200191508051906020019080838360005b83811015612bb0578082015181840152602081019050612b95565b50505050905090810190601f168015612bdd5780820380516001836020036101000a031916815260200191505b509250505060405180910390fd5b5060008385039050809150509392505050565b6000612c4083836040518060400160405280601e81526020017f536166654d6174683a207375627472616374696f6e206f766572666c6f770000815250612b3e565b905092915050565b600080612c5483611f3c565b915091508115612d3457600660016006805490500381548110612c7357fe5b9060005260206000200160009054906101000a900473ffffffffffffffffffffffffffffffffffffffff1660068281548110612cab57fe5b9060005260206000200160006101000a81548173ffffffffffffffffffffffffffffffffffffffff021916908373ffffffffffffffffffffffffffffffffffffffff1602179055506006805480612cfe57fe5b6001900381819060005260206000200160006101000a81549073ffffffffffffffffffffffffffffffffffffffff021916905590555b505050565b6000600860003373ffffffffffffffffffffffffffffffffffffffff1673ffffffffffffffffffffffffffffffffffffffff1681526020019081526020016000205490506000600860003373ffffffffffffffffffffffffffffffffffffffff1673ffffffffffffffffffffffffffffffffffffffff168152602001908152602001600020819055506000811415612dd15750612e55565b612dfe600960009054906101000a900473ffffffffffffffffffffffffffffffffffffffff163383612e5c565b612e53576040517f08c379a0000000000000000000000000000000000000000000000000000000008152600401808060200182810382526033815260200180612ffe6033913960400191505060405180910390fd5b505b565b505050565b60008084905060008173ffffffffffffffffffffffffffffffffffffffff1663a9059cbb86866040518363ffffffff1660e01b8152600401808373ffffffffffffffffffffffffffffffffffffffff16815260200182815260200192505050602060405180830381600087803b158015612ed557600080fd5b505af1158015612ee9573d6000803e3d6000fd5b505050506040513d6020811015612eff57600080fd5b8101908080519060200190929190505050503d60008114612f275760208114612f3157600080fd5b6000199150612f3d565b60206000803e60005191505b508092505050939250505056fe45524332303a207472616e7366657220746f20746865207a65726f206164647265737345524332303a206275726e20616d6f756e7420657863656564732062616c616e63654f776e61626c653a206e6577206f776e657220697320746865207a65726f206164647265737345524332303a20617070726f766520746f20746865207a65726f206164647265737345524332303a207472616e7366657220616d6f756e7420657863656564732062616c616e63657472616e736665724665653a20546f6b656e207472616e73666572206f7574206f6620636f6e7472616374206661696c65642e45524332303a207472616e7366657220616d6f756e74206578636565647320616c6c6f77616e636542617463685374616b65686f6c646572416464526577617264733a205f7374616b65686f6c646572732e6c656e67746820213d205f726577617264732e6c656e67746845524332303a206275726e2066726f6d20746865207a65726f206164647265737345524332303a207472616e736665722066726f6d20746865207a65726f206164647265737345524332303a20617070726f76652066726f6d20746865207a65726f206164647265737342617463685374616b65686f6c646572537562526577617264733a205f7374616b65686f6c646572732e6c656e67746820213d205f726577617264732e6c656e67746845524332303a2064656372656173656420616c6c6f77616e63652062656c6f77207a65726fa264697066735822122069408b532b8fa8ef8f58dbb53aee0232dfbc035e3895a6b38cea9f209c02352564736f6c634300060c0033",
  "compiler": {
    "name": "solc",
    "version": "0.6.12+commit.27d51765.Emscripten.clang",
    "optimizer": {
      "enabled": false,
      "runs": 200
    },
    "evmVersion": "petersburg"
  }
}