{
  "fileName": "StakingToken.sol",
  "contractName": "StakingToken",
  "source": "pragma solidity ^0.6.10;\n\n\nimport \"openzeppelin-solidity/contracts/token/ERC20/ERC20.sol\";\nimport \"openzeppelin-solidity/contracts/math/SafeMath.sol\";\nimport \"openzeppelin-solidity/contracts/access/Ownable.sol\";\nimport \"openzeppelin-solidity/contracts/token/ERC20/IERC20.sol\";\nimport \"openzeppelin-solidity/contracts/token/ERC20/SafeERC20.sol\";\n/*import \"openzeppelin-solidity/contracts/access/AccessControl.sol\";\nimport \"openzeppelin-solidity/contracts/GSN/Context.sol\"; */\n\n\n/**\n * @title Staking Token (STK)\n * @notice Implements a basic ERC20 staking token with incentive distribution.\n */\ncontract StakingToken is ERC20, Ownable {\n\n    using SafeMath for uint256;\n    using SafeERC20 for IERC20;\n\n\n    /**\n     * @notice We usually require to know who are all the stakeholders.\n     */\n    address[] internal stakeholders;\n\n    /**\n     * @notice The stakes for each stakeholder.\n     */\n    mapping(address => uint256) internal stakes;\n\n    /**\n     * @notice The accumulated rewards for each stakeholder.\n     */\n    mapping(address => uint256) internal rewards;\n\n\n\n    address public interest;\n\n\n    constructor (string memory name, string memory symbol,address  _interest)\n        ERC20(name, symbol)\n        public\n    {\n        // Mint 100 tokens to msg.sender\n        // Similar to how\n        // 1 dollar = 100 cents\n        // 1 token = 1 * (10 ** decimals)\n        //_mint(msg.sender, 500000000 * 10 ** uint(decimals()));\n        interest = _interest;\n    }\n\n    // ---------- STAKES ----------\n\n    /**\n     * @notice A method for a stakeholder to create a stake.\n     * @param _stake The size of the stake to be created.\n     */\n    function createStake(uint256 _stake)\n        public\n    {\n\n      (bool _isStakeholder, ) = isStakeholder(msg.sender);\n      if(!_isStakeholder){\n        _burn(msg.sender, _stake);\n        if(stakes[msg.sender] == 0) addStakeholder(msg.sender);\n        stakes[msg.sender] = stakes[msg.sender].add(_stake);\n      }\n    }\n\n    /**\n     * @notice A method for a stakeholder to remove a stake.\n     */\n    function removeStake()\n        public\n    {\n        //stakes[msg.sender] = stakes[msg.sender].sub(_stake);\n        stakes[msg.sender] = stakes[msg.sender].sub(stakes[msg.sender]);\n        removeStakeholder(msg.sender);\n        _mint(msg.sender, stakes[msg.sender]);\n        _withdrawReward();\n    }\n\n    /**\n     * @notice A method to retrieve the stake for a stakeholder.\n     * @param _stakeholder The stakeholder to retrieve the stake for.\n     * @return uint256 The amount of wei staked.\n     */\n    function stakeOf(address _stakeholder)\n        public\n        view\n        returns(uint256)\n    {\n        return stakes[_stakeholder];\n    }\n\n\n    function GetStakes()\n        public\n        view\n        returns(address[] memory _stakeholders, uint256[] memory _stakes)\n    {\n      uint256[] memory newstakes = new uint256[](stakeholders.length);\n      for (uint256 s = 0; s < stakeholders.length; s += 1){\n          newstakes[s]= stakes[stakeholders[s]];\n      }\n      return (stakeholders,newstakes);\n    }\n\n    function GetRewards()\n        public\n        view\n        returns(address[] memory _stakeholders, uint256[] memory _rewards)\n    {\n      uint256[] memory newrewards = new uint256[](stakeholders.length);\n      for (uint256 s = 0; s < stakeholders.length; s += 1){\n          newrewards[s]= rewards[stakeholders[s]];\n      }\n      return (stakeholders,newrewards);\n    }\n\n\n    \n\n\n    /**\n     * @notice A method to the aggregated stakes from all stakeholders.\n     * @return uint256 The aggregated stakes from all stakeholders.\n     */\n    function totalStakes()\n        public\n        view\n        returns(uint256)\n    {\n        uint256 _totalStakes = 0;\n        for (uint256 s = 0; s < stakeholders.length; s += 1){\n            _totalStakes = _totalStakes.add(stakes[stakeholders[s]]);\n        }\n        return _totalStakes;\n    }\n\n    // ---------- STAKEHOLDERS ----------\n\n    /**\n     * @notice A method to check if an address is a stakeholder.\n     * @param _address The address to verify.\n     * @return bool, uint256 Whether the address is a stakeholder,\n     * and if so its position in the stakeholders array.\n     */\n    function isStakeholder(address _address)\n        public\n        view\n        returns(bool, uint256)\n    {\n        for (uint256 s = 0; s < stakeholders.length; s += 1){\n            if (_address == stakeholders[s]) return (true, s);\n        }\n        return (false, 0);\n    }\n\n    /**\n     * @notice A method to add a stakeholder.\n     * @param _stakeholder The stakeholder to add.\n     */\n    function addStakeholder(address _stakeholder)\n        internal\n    {\n        (bool _isStakeholder, ) = isStakeholder(_stakeholder);\n        if(!_isStakeholder) stakeholders.push(_stakeholder);\n    }\n\n    /**\n     * @notice A method to remove a stakeholder.\n     * @param _stakeholder The stakeholder to remove.\n     */\n    function removeStakeholder(address _stakeholder)\n        internal\n    {\n        (bool _isStakeholder, uint256 s) = isStakeholder(_stakeholder);\n        if(_isStakeholder){\n            stakeholders[s] = stakeholders[stakeholders.length - 1];\n            stakeholders.pop();\n        }\n    }\n\n    // ---------- REWARDS ----------\n\n    /**\n     * @notice A method to allow a stakeholder to check his rewards.\n     * @param _stakeholder The stakeholder to check rewards for.\n     */\n    function rewardOf(address _stakeholder)\n        public\n        view\n        returns(uint256)\n    {\n        return rewards[_stakeholder];\n    }\n\n    /**\n     * @notice A method to the aggregated rewards from all stakeholders.\n     * @return uint256 The aggregated rewards from all stakeholders.\n     */\n    function totalRewards()\n        public\n        view\n        returns(uint256)\n    {\n        uint256 _totalRewards = 0;\n        for (uint256 s = 0; s < stakeholders.length; s += 1){\n            _totalRewards = _totalRewards.add(rewards[stakeholders[s]]);\n        }\n        return _totalRewards;\n    }\n\n    /**\n     * @notice A simple method that calculates the rewards for each stakeholder.\n     * @param _stakeholder The stakeholder to calculate rewards for.\n     */\n    function calculateReward(address _stakeholder)\n        public\n        view\n        returns(uint256)\n    {\n        return stakes[_stakeholder] / 100;\n    }\n\n\n    /**\n     * @notice A method to distribute rewards to all stakeholders.\n     */\n    function distributeRewards()\n        public\n        onlyOwner\n    {\n        for (uint256 s = 0; s < stakeholders.length; s += 1){\n            address stakeholder = stakeholders[s];\n            uint256 reward = calculateReward(stakeholder);\n            rewards[stakeholder] = rewards[stakeholder].add(reward);\n        }\n    }\n\n\n    function BatchStakeholderAddRewards(address[] memory _stakeholders, uint256[] memory  _rewards)\n        public\n        onlyOwner\n    {\n\n      require(\n          _stakeholders.length == _rewards.length,\n          \"BatchStakeholderAddRewards: _stakeholders.length != _rewards.length\"\n      );\n\n      for (uint256 s = 0; s < _stakeholders.length; s += 1){\n         (bool _isStakeholder, ) = isStakeholder(_stakeholders[s]);\n        if(_isStakeholder){\n          address stakeholder = _stakeholders[s];\n          rewards[stakeholder] = rewards[stakeholder].add(_rewards[s]);\n          }\n        }\n    }\n\n    function BatchStakeholderSubRewards(address[] memory _stakeholders, uint256[] memory  _rewards)\n        public\n        onlyOwner\n    {\n\n      require(\n          _stakeholders.length == _rewards.length,\n          \"BatchStakeholderSubRewards: _stakeholders.length != _rewards.length\"\n      );\n\n      for (uint256 s = 0; s < _stakeholders.length; s += 1){\n        (bool _isStakeholder, ) = isStakeholder(_stakeholders[s]);\n       if(_isStakeholder){\n          address stakeholder = _stakeholders[s];\n          rewards[stakeholder] = rewards[stakeholder].sub(_rewards[s]);\n      }\n    }\n    }\n\n    function Mint(address  recipient, uint256 amount)\n        public\n        onlyOwner\n    {\n      _mint(recipient, amount);\n    }\n\n\n    function Burn(uint256 amount)\n        public\n    {\n      _burn(msg.sender, amount);\n    }\n\n    /**\n     * @notice A method to allow a stakeholder to withdraw his rewards.\n     */\n    function _withdrawReward()\n        internal\n    {\n        uint256 reward = rewards[msg.sender];\n        rewards[msg.sender] = 0;\n        //_mint(msg.sender, reward);\n\n        if(reward == 0) return;\n\n        require(\n            _doTransferOut(interest, msg.sender, reward),\n            \"transferFee: Token transfer out of contract failed.\"\n        );\n    }\n\n\n    function _doTransferOut(\n        address _token,\n        address _to,\n        uint256 _amount\n    ) internal returns (bool) {\n        IERC20 token = IERC20(_token);\n        bool result;\n\n        token.transfer(_to, _amount);\n\n        assembly {\n            switch returndatasize()\n                case 0 {\n                    result := not(0)\n                }\n                case 32 {\n                    returndatacopy(0, 0, 32)\n                    result := mload(0)\n                }\n                default {\n                    revert(0, 0)\n                }\n        }\n        return result;\n    }\n\n\n}\n",
  "sourcePath": "contracts/StakingToken.sol",
  "abi": [
    {
      "inputs": [
        {
          "internalType": "string",
          "name": "name",
          "type": "string"
        },
        {
          "internalType": "string",
          "name": "symbol",
          "type": "string"
        },
        {
          "internalType": "address",
          "name": "_interest",
          "type": "address"
        }
      ],
      "stateMutability": "nonpayable",
      "type": "constructor"
    },
    {
      "anonymous": false,
      "inputs": [
        {
          "indexed": true,
          "internalType": "address",
          "name": "owner",
          "type": "address"
        },
        {
          "indexed": true,
          "internalType": "address",
          "name": "spender",
          "type": "address"
        },
        {
          "indexed": false,
          "internalType": "uint256",
          "name": "value",
          "type": "uint256"
        }
      ],
      "name": "Approval",
      "type": "event"
    },
    {
      "anonymous": false,
      "inputs": [
        {
          "indexed": true,
          "internalType": "address",
          "name": "previousOwner",
          "type": "address"
        },
        {
          "indexed": true,
          "internalType": "address",
          "name": "newOwner",
          "type": "address"
        }
      ],
      "name": "OwnershipTransferred",
      "type": "event"
    },
    {
      "anonymous": false,
      "inputs": [
        {
          "indexed": true,
          "internalType": "address",
          "name": "from",
          "type": "address"
        },
        {
          "indexed": true,
          "internalType": "address",
          "name": "to",
          "type": "address"
        },
        {
          "indexed": false,
          "internalType": "uint256",
          "name": "value",
          "type": "uint256"
        }
      ],
      "name": "Transfer",
      "type": "event"
    },
    {
      "inputs": [
        {
          "internalType": "address[]",
          "name": "_stakeholders",
          "type": "address[]"
        },
        {
          "internalType": "uint256[]",
          "name": "_rewards",
          "type": "uint256[]"
        }
      ],
      "name": "BatchStakeholderAddRewards",
      "outputs": [],
      "stateMutability": "nonpayable",
      "type": "function"
    },
    {
      "inputs": [
        {
          "internalType": "address[]",
          "name": "_stakeholders",
          "type": "address[]"
        },
        {
          "internalType": "uint256[]",
          "name": "_rewards",
          "type": "uint256[]"
        }
      ],
      "name": "BatchStakeholderSubRewards",
      "outputs": [],
      "stateMutability": "nonpayable",
      "type": "function"
    },
    {
      "inputs": [
        {
          "internalType": "uint256",
          "name": "amount",
          "type": "uint256"
        }
      ],
      "name": "Burn",
      "outputs": [],
      "stateMutability": "nonpayable",
      "type": "function"
    },
    {
      "inputs": [],
      "name": "GetRewards",
      "outputs": [
        {
          "internalType": "address[]",
          "name": "_stakeholders",
          "type": "address[]"
        },
        {
          "internalType": "uint256[]",
          "name": "_rewards",
          "type": "uint256[]"
        }
      ],
      "stateMutability": "view",
      "type": "function"
    },
    {
      "inputs": [],
      "name": "GetStakes",
      "outputs": [
        {
          "internalType": "address[]",
          "name": "_stakeholders",
          "type": "address[]"
        },
        {
          "internalType": "uint256[]",
          "name": "_stakes",
          "type": "uint256[]"
        }
      ],
      "stateMutability": "view",
      "type": "function"
    },
    {
      "inputs": [
        {
          "internalType": "address",
          "name": "recipient",
          "type": "address"
        },
        {
          "internalType": "uint256",
          "name": "amount",
          "type": "uint256"
        }
      ],
      "name": "Mint",
      "outputs": [],
      "stateMutability": "nonpayable",
      "type": "function"
    },
    {
      "inputs": [
        {
          "internalType": "address",
          "name": "owner",
          "type": "address"
        },
        {
          "internalType": "address",
          "name": "spender",
          "type": "address"
        }
      ],
      "name": "allowance",
      "outputs": [
        {
          "internalType": "uint256",
          "name": "",
          "type": "uint256"
        }
      ],
      "stateMutability": "view",
      "type": "function"
    },
    {
      "inputs": [
        {
          "internalType": "address",
          "name": "spender",
          "type": "address"
        },
        {
          "internalType": "uint256",
          "name": "amount",
          "type": "uint256"
        }
      ],
      "name": "approve",
      "outputs": [
        {
          "internalType": "bool",
          "name": "",
          "type": "bool"
        }
      ],
      "stateMutability": "nonpayable",
      "type": "function"
    },
    {
      "inputs": [
        {
          "internalType": "address",
          "name": "account",
          "type": "address"
        }
      ],
      "name": "balanceOf",
      "outputs": [
        {
          "internalType": "uint256",
          "name": "",
          "type": "uint256"
        }
      ],
      "stateMutability": "view",
      "type": "function"
    },
    {
      "inputs": [
        {
          "internalType": "address",
          "name": "_stakeholder",
          "type": "address"
        }
      ],
      "name": "calculateReward",
      "outputs": [
        {
          "internalType": "uint256",
          "name": "",
          "type": "uint256"
        }
      ],
      "stateMutability": "view",
      "type": "function"
    },
    {
      "inputs": [
        {
          "internalType": "uint256",
          "name": "_stake",
          "type": "uint256"
        }
      ],
      "name": "createStake",
      "outputs": [],
      "stateMutability": "nonpayable",
      "type": "function"
    },
    {
      "inputs": [],
      "name": "decimals",
      "outputs": [
        {
          "internalType": "uint8",
          "name": "",
          "type": "uint8"
        }
      ],
      "stateMutability": "view",
      "type": "function"
    },
    {
      "inputs": [
        {
          "internalType": "address",
          "name": "spender",
          "type": "address"
        },
        {
          "internalType": "uint256",
          "name": "subtractedValue",
          "type": "uint256"
        }
      ],
      "name": "decreaseAllowance",
      "outputs": [
        {
          "internalType": "bool",
          "name": "",
          "type": "bool"
        }
      ],
      "stateMutability": "nonpayable",
      "type": "function"
    },
    {
      "inputs": [],
      "name": "distributeRewards",
      "outputs": [],
      "stateMutability": "nonpayable",
      "type": "function"
    },
    {
      "inputs": [
        {
          "internalType": "address",
          "name": "spender",
          "type": "address"
        },
        {
          "internalType": "uint256",
          "name": "addedValue",
          "type": "uint256"
        }
      ],
      "name": "increaseAllowance",
      "outputs": [
        {
          "internalType": "bool",
          "name": "",
          "type": "bool"
        }
      ],
      "stateMutability": "nonpayable",
      "type": "function"
    },
    {
      "inputs": [],
      "name": "interest",
      "outputs": [
        {
          "internalType": "address",
          "name": "",
          "type": "address"
        }
      ],
      "stateMutability": "view",
      "type": "function"
    },
    {
      "inputs": [
        {
          "internalType": "address",
          "name": "_address",
          "type": "address"
        }
      ],
      "name": "isStakeholder",
      "outputs": [
        {
          "internalType": "bool",
          "name": "",
          "type": "bool"
        },
        {
          "internalType": "uint256",
          "name": "",
          "type": "uint256"
        }
      ],
      "stateMutability": "view",
      "type": "function"
    },
    {
      "inputs": [],
      "name": "name",
      "outputs": [
        {
          "internalType": "string",
          "name": "",
          "type": "string"
        }
      ],
      "stateMutability": "view",
      "type": "function"
    },
    {
      "inputs": [],
      "name": "owner",
      "outputs": [
        {
          "internalType": "address",
          "name": "",
          "type": "address"
        }
      ],
      "stateMutability": "view",
      "type": "function"
    },
    {
      "inputs": [],
      "name": "removeStake",
      "outputs": [],
      "stateMutability": "nonpayable",
      "type": "function"
    },
    {
      "inputs": [],
      "name": "renounceOwnership",
      "outputs": [],
      "stateMutability": "nonpayable",
      "type": "function"
    },
    {
      "inputs": [
        {
          "internalType": "address",
          "name": "_stakeholder",
          "type": "address"
        }
      ],
      "name": "rewardOf",
      "outputs": [
        {
          "internalType": "uint256",
          "name": "",
          "type": "uint256"
        }
      ],
      "stateMutability": "view",
      "type": "function"
    },
    {
      "inputs": [
        {
          "internalType": "address",
          "name": "_stakeholder",
          "type": "address"
        }
      ],
      "name": "stakeOf",
      "outputs": [
        {
          "internalType": "uint256",
          "name": "",
          "type": "uint256"
        }
      ],
      "stateMutability": "view",
      "type": "function"
    },
    {
      "inputs": [],
      "name": "symbol",
      "outputs": [
        {
          "internalType": "string",
          "name": "",
          "type": "string"
        }
      ],
      "stateMutability": "view",
      "type": "function"
    },
    {
      "inputs": [],
      "name": "totalRewards",
      "outputs": [
        {
          "internalType": "uint256",
          "name": "",
          "type": "uint256"
        }
      ],
      "stateMutability": "view",
      "type": "function"
    },
    {
      "inputs": [],
      "name": "totalStakes",
      "outputs": [
        {
          "internalType": "uint256",
          "name": "",
          "type": "uint256"
        }
      ],
      "stateMutability": "view",
      "type": "function"
    },
    {
      "inputs": [],
      "name": "totalSupply",
      "outputs": [
        {
          "internalType": "uint256",
          "name": "",
          "type": "uint256"
        }
      ],
      "stateMutability": "view",
      "type": "function"
    },
    {
      "inputs": [
        {
          "internalType": "address",
          "name": "recipient",
          "type": "address"
        },
        {
          "internalType": "uint256",
          "name": "amount",
          "type": "uint256"
        }
      ],
      "name": "transfer",
      "outputs": [
        {
          "internalType": "bool",
          "name": "",
          "type": "bool"
        }
      ],
      "stateMutability": "nonpayable",
      "type": "function"
    },
    {
      "inputs": [
        {
          "internalType": "address",
          "name": "sender",
          "type": "address"
        },
        {
          "internalType": "address",
          "name": "recipient",
          "type": "address"
        },
        {
          "internalType": "uint256",
          "name": "amount",
          "type": "uint256"
        }
      ],
      "name": "transferFrom",
      "outputs": [
        {
          "internalType": "bool",
          "name": "",
          "type": "bool"
        }
      ],
      "stateMutability": "nonpayable",
      "type": "function"
    },
    {
      "inputs": [
        {
          "internalType": "address",
          "name": "newOwner",
          "type": "address"
        }
      ],
      "name": "transferOwnership",
      "outputs": [],
      "stateMutability": "nonpayable",
      "type": "function"
    }
  ],
  "bytecode": "0x60806040523480156200001157600080fd5b506040516200388c3803806200388c833981810160405260608110156200003757600080fd5b81019080805160405193929190846401000000008211156200005857600080fd5b838201915060208201858111156200006f57600080fd5b82518660018202830111640100000000821117156200008d57600080fd5b8083526020830192505050908051906020019080838360005b83811015620000c3578082015181840152602081019050620000a6565b50505050905090810190601f168015620000f15780820380516001836020036101000a031916815260200191505b50604052602001805160405193929190846401000000008211156200011557600080fd5b838201915060208201858111156200012c57600080fd5b82518660018202830111640100000000821117156200014a57600080fd5b8083526020830192505050908051906020019080838360005b838110156200018057808201518184015260208101905062000163565b50505050905090810190601f168015620001ae5780820380516001836020036101000a031916815260200191505b506040526020018051906020019092919050505082828160039080519060200190620001dc92919062000317565b508060049080519060200190620001f592919062000317565b506012600560006101000a81548160ff021916908360ff16021790555050506000620002266200030f60201b60201c565b905080600560016101000a81548173ffffffffffffffffffffffffffffffffffffffff021916908373ffffffffffffffffffffffffffffffffffffffff1602179055508073ffffffffffffffffffffffffffffffffffffffff16600073ffffffffffffffffffffffffffffffffffffffff167f8be0079c531659141344cd1fd0a4f28419497f9722a3daafe3b4186f6b6457e060405160405180910390a35080600960006101000a81548173ffffffffffffffffffffffffffffffffffffffff021916908373ffffffffffffffffffffffffffffffffffffffff160217905550505050620003bd565b600033905090565b828054600181600116156101000203166002900490600052602060002090601f016020900481019282601f106200035a57805160ff19168380011785556200038b565b828001600101855582156200038b579182015b828111156200038a5782518255916020019190600101906200036d565b5b5090506200039a91906200039e565b5090565b5b80821115620003b95760008160009055506001016200039f565b5090565b6134bf80620003cd6000396000f3fe608060405234801561001057600080fd5b50600436106101da5760003560e01c806378ad232011610104578063b90306ad116100a2578063d82e396211610071578063d82e396214610b92578063dd62ed3e14610bea578063ef037b9014610c62578063f2fde38b14610cc3576101da565b8063b90306ad14610a6b578063bf9befb114610a99578063c26b960014610ab7578063c392f76614610b5e576101da565b806395d89b41116100de57806395d89b41146109165780639c91b77914610999578063a457c2d7146109a3578063a9059cbb14610a07576101da565b806378ad23201461064a57806384a1eaa8146107965780638da5cb5b146108e2576101da565b806323b872dd1161017c57806365a065e11161014b57806365a065e1146105375780636f4a2cd0146105de57806370a08231146105e8578063715018a614610640576101da565b806323b872dd146103d6578063313ce5671461045a578063395093511461047b57806342623360146104df576101da565b80630f6798a5116101b85780630f6798a5146102e457806318160ddd146103325780631bf6ddae146103505780631d62ebd91461037e576101da565b806306fdde03146101df578063095ea7b3146102625780630e15561a146102c6575b600080fd5b6101e7610d07565b6040518080602001828103825283818151815260200191508051906020019080838360005b8381101561022757808201518184015260208101905061020c565b50505050905090810190601f1680156102545780820380516001836020036101000a031916815260200191505b509250505060405180910390f35b6102ae6004803603604081101561027857600080fd5b81019080803573ffffffffffffffffffffffffffffffffffffffff16906020019092919080359060200190929190505050610da9565b60405180821515815260200191505060405180910390f35b6102ce610dc7565b6040518082815260200191505060405180910390f35b610330600480360360408110156102fa57600080fd5b81019080803573ffffffffffffffffffffffffffffffffffffffff16906020019092919080359060200190929190505050610e7c565b005b61033a610f54565b6040518082815260200191505060405180910390f35b61037c6004803603602081101561036657600080fd5b8101908080359060200190929190505050610f5e565b005b6103c06004803603602081101561039457600080fd5b81019080803573ffffffffffffffffffffffffffffffffffffffff169060200190929190505050611067565b6040518082815260200191505060405180910390f35b610442600480360360608110156103ec57600080fd5b81019080803573ffffffffffffffffffffffffffffffffffffffff169060200190929190803573ffffffffffffffffffffffffffffffffffffffff169060200190929190803590602001909291905050506110b0565b60405180821515815260200191505060405180910390f35b610462611189565b604051808260ff16815260200191505060405180910390f35b6104c76004803603604081101561049157600080fd5b81019080803573ffffffffffffffffffffffffffffffffffffffff169060200190929190803590602001909291905050506111a0565b60405180821515815260200191505060405180910390f35b610521600480360360208110156104f557600080fd5b81019080803573ffffffffffffffffffffffffffffffffffffffff169060200190929190505050611253565b6040518082815260200191505060405180910390f35b61053f61129c565b604051808060200180602001838103835285818151815260200191508051906020019060200280838360005b8381101561058657808201518184015260208101905061056b565b50505050905001838103825284818151815260200191508051906020019060200280838360005b838110156105c85780820151818401526020810190506105ad565b5050505090500194505050505060405180910390f35b6105e661142e565b005b61062a600480360360208110156105fe57600080fd5b81019080803573ffffffffffffffffffffffffffffffffffffffff1690602001909291905050506115f6565b6040518082815260200191505060405180910390f35b61064861163e565b005b6107946004803603604081101561066057600080fd5b810190808035906020019064010000000081111561067d57600080fd5b82018360208201111561068f57600080fd5b803590602001918460208302840111640100000000831117156106b157600080fd5b919080806020026020016040519081016040528093929190818152602001838360200280828437600081840152601f19601f8201169050808301925050505050505091929192908035906020019064010000000081111561071157600080fd5b82018360208201111561072357600080fd5b8035906020019184602083028401116401000000008311171561074557600080fd5b919080806020026020016040519081016040528093929190818152602001838360200280828437600081840152601f19601f8201169050808301925050505050505091929192905050506117c9565b005b6108e0600480360360408110156107ac57600080fd5b81019080803590602001906401000000008111156107c957600080fd5b8201836020820111156107db57600080fd5b803590602001918460208302840111640100000000831117156107fd57600080fd5b919080806020026020016040519081016040528093929190818152602001838360200280828437600081840152601f19601f8201169050808301925050505050505091929192908035906020019064010000000081111561085d57600080fd5b82018360208201111561086f57600080fd5b8035906020019184602083028401116401000000008311171561089157600080fd5b919080806020026020016040519081016040528093929190818152602001838360200280828437600081840152601f19601f8201169050808301925050505050505091929192905050506119f3565b005b6108ea611c1d565b604051808273ffffffffffffffffffffffffffffffffffffffff16815260200191505060405180910390f35b61091e611c47565b6040518080602001828103825283818151815260200191508051906020019080838360005b8381101561095e578082015181840152602081019050610943565b50505050905090810190601f16801561098b5780820380516001836020036101000a031916815260200191505b509250505060405180910390f35b6109a1611ce9565b005b6109ef600480360360408110156109b957600080fd5b81019080803573ffffffffffffffffffffffffffffffffffffffff16906020019092919080359060200190929190505050611e19565b60405180821515815260200191505060405180910390f35b610a5360048036036040811015610a1d57600080fd5b81019080803573ffffffffffffffffffffffffffffffffffffffff16906020019092919080359060200190929190505050611ee6565b60405180821515815260200191505060405180910390f35b610a9760048036036020811015610a8157600080fd5b8101908080359060200190929190505050611f04565b005b610aa1611f11565b6040518082815260200191505060405180910390f35b610abf611fc6565b604051808060200180602001838103835285818151815260200191508051906020019060200280838360005b83811015610b06578082015181840152602081019050610aeb565b50505050905001838103825284818151815260200191508051906020019060200280838360005b83811015610b48578082015181840152602081019050610b2d565b5050505090500194505050505060405180910390f35b610b66612158565b604051808273ffffffffffffffffffffffffffffffffffffffff16815260200191505060405180910390f35b610bd460048036036020811015610ba857600080fd5b81019080803573ffffffffffffffffffffffffffffffffffffffff16906020019092919050505061217e565b6040518082815260200191505060405180910390f35b610c4c60048036036040811015610c0057600080fd5b81019080803573ffffffffffffffffffffffffffffffffffffffff169060200190929190803573ffffffffffffffffffffffffffffffffffffffff1690602001909291905050506121d1565b6040518082815260200191505060405180910390f35b610ca460048036036020811015610c7857600080fd5b81019080803573ffffffffffffffffffffffffffffffffffffffff169060200190929190505050612258565b6040518083151581526020018281526020019250505060405180910390f35b610d0560048036036020811015610cd957600080fd5b81019080803573ffffffffffffffffffffffffffffffffffffffff1690602001909291905050506122fc565b005b606060038054600181600116156101000203166002900480601f016020809104026020016040519081016040528092919081815260200182805460018160011615610100020316600290048015610d9f5780601f10610d7457610100808354040283529160200191610d9f565b820191906000526020600020905b815481529060010190602001808311610d8257829003601f168201915b5050505050905090565b6000610dbd610db661250c565b8484612514565b6001905092915050565b6000806000905060005b600680549050811015610e7457610e676008600060068481548110610df257fe5b9060005260206000200160009054906101000a900473ffffffffffffffffffffffffffffffffffffffff1673ffffffffffffffffffffffffffffffffffffffff1673ffffffffffffffffffffffffffffffffffffffff168152602001908152602001600020548361270b90919063ffffffff16565b9150600181019050610dd1565b508091505090565b610e8461250c565b73ffffffffffffffffffffffffffffffffffffffff16600560019054906101000a900473ffffffffffffffffffffffffffffffffffffffff1673ffffffffffffffffffffffffffffffffffffffff1614610f46576040517f08c379a00000000000000000000000000000000000000000000000000000000081526004018080602001828103825260208152602001807f4f776e61626c653a2063616c6c6572206973206e6f7420746865206f776e657281525060200191505060405180910390fd5b610f508282612793565b5050565b6000600254905090565b6000610f6933612258565b5090508061106357610f7b338361295a565b6000600760003373ffffffffffffffffffffffffffffffffffffffff1673ffffffffffffffffffffffffffffffffffffffff168152602001908152602001600020541415610fcd57610fcc33612b1e565b5b61101f82600760003373ffffffffffffffffffffffffffffffffffffffff1673ffffffffffffffffffffffffffffffffffffffff1681526020019081526020016000205461270b90919063ffffffff16565b600760003373ffffffffffffffffffffffffffffffffffffffff1673ffffffffffffffffffffffffffffffffffffffff168152602001908152602001600020819055505b5050565b6000600860008373ffffffffffffffffffffffffffffffffffffffff1673ffffffffffffffffffffffffffffffffffffffff168152602001908152602001600020549050919050565b60006110bd848484612b99565b61117e846110c961250c565b6111798560405180606001604052806028815260200161334d60289139600160008b73ffffffffffffffffffffffffffffffffffffffff1673ffffffffffffffffffffffffffffffffffffffff168152602001908152602001600020600061112f61250c565b73ffffffffffffffffffffffffffffffffffffffff1673ffffffffffffffffffffffffffffffffffffffff16815260200190815260200160002054612e5a9092919063ffffffff16565b612514565b600190509392505050565b6000600560009054906101000a900460ff16905090565b60006112496111ad61250c565b8461124485600160006111be61250c565b73ffffffffffffffffffffffffffffffffffffffff1673ffffffffffffffffffffffffffffffffffffffff16815260200190815260200160002060008973ffffffffffffffffffffffffffffffffffffffff1673ffffffffffffffffffffffffffffffffffffffff1681526020019081526020016000205461270b90919063ffffffff16565b612514565b6001905092915050565b6000600760008373ffffffffffffffffffffffffffffffffffffffff1673ffffffffffffffffffffffffffffffffffffffff168152602001908152602001600020549050919050565b606080606060068054905067ffffffffffffffff811180156112bd57600080fd5b506040519080825280602002602001820160405280156112ec5781602001602082028036833780820191505090505b50905060005b60068054905081101561139957600760006006838154811061131057fe5b9060005260206000200160009054906101000a900473ffffffffffffffffffffffffffffffffffffffff1673ffffffffffffffffffffffffffffffffffffffff1673ffffffffffffffffffffffffffffffffffffffff1681526020019081526020016000205482828151811061138257fe5b6020026020010181815250506001810190506112f2565b506006818180548060200260200160405190810160405280929190818152602001828054801561141e57602002820191906000526020600020905b8160009054906101000a900473ffffffffffffffffffffffffffffffffffffffff1673ffffffffffffffffffffffffffffffffffffffff16815260200190600101908083116113d4575b5050505050915092509250509091565b61143661250c565b73ffffffffffffffffffffffffffffffffffffffff16600560019054906101000a900473ffffffffffffffffffffffffffffffffffffffff1673ffffffffffffffffffffffffffffffffffffffff16146114f8576040517f08c379a00000000000000000000000000000000000000000000000000000000081526004018080602001828103825260208152602001807f4f776e61626c653a2063616c6c6572206973206e6f7420746865206f776e657281525060200191505060405180910390fd5b60005b6006805490508110156115f35760006006828154811061151757fe5b9060005260206000200160009054906101000a900473ffffffffffffffffffffffffffffffffffffffff169050600061154f8261217e565b90506115a381600860008573ffffffffffffffffffffffffffffffffffffffff1673ffffffffffffffffffffffffffffffffffffffff1681526020019081526020016000205461270b90919063ffffffff16565b600860008473ffffffffffffffffffffffffffffffffffffffff1673ffffffffffffffffffffffffffffffffffffffff1681526020019081526020016000208190555050506001810190506114fb565b50565b60008060008373ffffffffffffffffffffffffffffffffffffffff1673ffffffffffffffffffffffffffffffffffffffff168152602001908152602001600020549050919050565b61164661250c565b73ffffffffffffffffffffffffffffffffffffffff16600560019054906101000a900473ffffffffffffffffffffffffffffffffffffffff1673ffffffffffffffffffffffffffffffffffffffff1614611708576040517f08c379a00000000000000000000000000000000000000000000000000000000081526004018080602001828103825260208152602001807f4f776e61626c653a2063616c6c6572206973206e6f7420746865206f776e657281525060200191505060405180910390fd5b600073ffffffffffffffffffffffffffffffffffffffff16600560019054906101000a900473ffffffffffffffffffffffffffffffffffffffff1673ffffffffffffffffffffffffffffffffffffffff167f8be0079c531659141344cd1fd0a4f28419497f9722a3daafe3b4186f6b6457e060405160405180910390a36000600560016101000a81548173ffffffffffffffffffffffffffffffffffffffff021916908373ffffffffffffffffffffffffffffffffffffffff160217905550565b6117d161250c565b73ffffffffffffffffffffffffffffffffffffffff16600560019054906101000a900473ffffffffffffffffffffffffffffffffffffffff1673ffffffffffffffffffffffffffffffffffffffff1614611893576040517f08c379a00000000000000000000000000000000000000000000000000000000081526004018080602001828103825260208152602001807f4f776e61626c653a2063616c6c6572206973206e6f7420746865206f776e657281525060200191505060405180910390fd5b80518251146118ed576040517f08c379a00000000000000000000000000000000000000000000000000000000081526004018080602001828103825260438152602001806133756043913960600191505060405180910390fd5b60005b82518110156119ee57600061191784838151811061190a57fe5b6020026020010151612258565b50905080156119e257600084838151811061192e57fe5b6020026020010151905061199d84848151811061194757fe5b6020026020010151600860008473ffffffffffffffffffffffffffffffffffffffff1673ffffffffffffffffffffffffffffffffffffffff1681526020019081526020016000205461270b90919063ffffffff16565b600860008373ffffffffffffffffffffffffffffffffffffffff1673ffffffffffffffffffffffffffffffffffffffff16815260200190815260200160002081905550505b506001810190506118f0565b505050565b6119fb61250c565b73ffffffffffffffffffffffffffffffffffffffff16600560019054906101000a900473ffffffffffffffffffffffffffffffffffffffff1673ffffffffffffffffffffffffffffffffffffffff1614611abd576040517f08c379a00000000000000000000000000000000000000000000000000000000081526004018080602001828103825260208152602001807f4f776e61626c653a2063616c6c6572206973206e6f7420746865206f776e657281525060200191505060405180910390fd5b8051825114611b17576040517f08c379a00000000000000000000000000000000000000000000000000000000081526004018080602001828103825260438152602001806134226043913960600191505060405180910390fd5b60005b8251811015611c18576000611b41848381518110611b3457fe5b6020026020010151612258565b5090508015611c0c576000848381518110611b5857fe5b60200260200101519050611bc7848481518110611b7157fe5b6020026020010151600860008473ffffffffffffffffffffffffffffffffffffffff1673ffffffffffffffffffffffffffffffffffffffff16815260200190815260200160002054612f1a90919063ffffffff16565b600860008373ffffffffffffffffffffffffffffffffffffffff1673ffffffffffffffffffffffffffffffffffffffff16815260200190815260200160002081905550505b50600181019050611b1a565b505050565b6000600560019054906101000a900473ffffffffffffffffffffffffffffffffffffffff16905090565b606060048054600181600116156101000203166002900480601f016020809104026020016040519081016040528092919081815260200182805460018160011615610100020316600290048015611cdf5780601f10611cb457610100808354040283529160200191611cdf565b820191906000526020600020905b815481529060010190602001808311611cc257829003601f168201915b5050505050905090565b611d7a600760003373ffffffffffffffffffffffffffffffffffffffff1673ffffffffffffffffffffffffffffffffffffffff16815260200190815260200160002054600760003373ffffffffffffffffffffffffffffffffffffffff1673ffffffffffffffffffffffffffffffffffffffff16815260200190815260200160002054612f1a90919063ffffffff16565b600760003373ffffffffffffffffffffffffffffffffffffffff1673ffffffffffffffffffffffffffffffffffffffff16815260200190815260200160002081905550611dc633612f64565b611e0f33600760003373ffffffffffffffffffffffffffffffffffffffff1673ffffffffffffffffffffffffffffffffffffffff16815260200190815260200160002054612793565b611e17613055565b565b6000611edc611e2661250c565b84611ed7856040518060600160405280602581526020016134656025913960016000611e5061250c565b73ffffffffffffffffffffffffffffffffffffffff1673ffffffffffffffffffffffffffffffffffffffff16815260200190815260200160002060008a73ffffffffffffffffffffffffffffffffffffffff1673ffffffffffffffffffffffffffffffffffffffff16815260200190815260200160002054612e5a9092919063ffffffff16565b612514565b6001905092915050565b6000611efa611ef361250c565b8484612b99565b6001905092915050565b611f0e338261295a565b50565b6000806000905060005b600680549050811015611fbe57611fb16007600060068481548110611f3c57fe5b9060005260206000200160009054906101000a900473ffffffffffffffffffffffffffffffffffffffff1673ffffffffffffffffffffffffffffffffffffffff1673ffffffffffffffffffffffffffffffffffffffff168152602001908152602001600020548361270b90919063ffffffff16565b9150600181019050611f1b565b508091505090565b606080606060068054905067ffffffffffffffff81118015611fe757600080fd5b506040519080825280602002602001820160405280156120165781602001602082028036833780820191505090505b50905060005b6006805490508110156120c357600860006006838154811061203a57fe5b9060005260206000200160009054906101000a900473ffffffffffffffffffffffffffffffffffffffff1673ffffffffffffffffffffffffffffffffffffffff1673ffffffffffffffffffffffffffffffffffffffff168152602001908152602001600020548282815181106120ac57fe5b60200260200101818152505060018101905061201c565b506006818180548060200260200160405190810160405280929190818152602001828054801561214857602002820191906000526020600020905b8160009054906101000a900473ffffffffffffffffffffffffffffffffffffffff1673ffffffffffffffffffffffffffffffffffffffff16815260200190600101908083116120fe575b5050505050915092509250509091565b600960009054906101000a900473ffffffffffffffffffffffffffffffffffffffff1681565b60006064600760008473ffffffffffffffffffffffffffffffffffffffff1673ffffffffffffffffffffffffffffffffffffffff16815260200190815260200160002054816121c957fe5b049050919050565b6000600160008473ffffffffffffffffffffffffffffffffffffffff1673ffffffffffffffffffffffffffffffffffffffff16815260200190815260200160002060008373ffffffffffffffffffffffffffffffffffffffff1673ffffffffffffffffffffffffffffffffffffffff16815260200190815260200160002054905092915050565b60008060005b6006805490508110156122ee576006818154811061227857fe5b9060005260206000200160009054906101000a900473ffffffffffffffffffffffffffffffffffffffff1673ffffffffffffffffffffffffffffffffffffffff168473ffffffffffffffffffffffffffffffffffffffff1614156122e35760018192509250506122f7565b60018101905061225e565b50600080915091505b915091565b61230461250c565b73ffffffffffffffffffffffffffffffffffffffff16600560019054906101000a900473ffffffffffffffffffffffffffffffffffffffff1673ffffffffffffffffffffffffffffffffffffffff16146123c6576040517f08c379a00000000000000000000000000000000000000000000000000000000081526004018080602001828103825260208152602001807f4f776e61626c653a2063616c6c6572206973206e6f7420746865206f776e657281525060200191505060405180910390fd5b600073ffffffffffffffffffffffffffffffffffffffff168173ffffffffffffffffffffffffffffffffffffffff16141561244c576040517f08c379a00000000000000000000000000000000000000000000000000000000081526004018080602001828103825260268152602001806132ac6026913960400191505060405180910390fd5b8073ffffffffffffffffffffffffffffffffffffffff16600560019054906101000a900473ffffffffffffffffffffffffffffffffffffffff1673ffffffffffffffffffffffffffffffffffffffff167f8be0079c531659141344cd1fd0a4f28419497f9722a3daafe3b4186f6b6457e060405160405180910390a380600560016101000a81548173ffffffffffffffffffffffffffffffffffffffff021916908373ffffffffffffffffffffffffffffffffffffffff16021790555050565b600033905090565b600073ffffffffffffffffffffffffffffffffffffffff168373ffffffffffffffffffffffffffffffffffffffff16141561259a576040517f08c379a00000000000000000000000000000000000000000000000000000000081526004018080602001828103825260248152602001806133fe6024913960400191505060405180910390fd5b600073ffffffffffffffffffffffffffffffffffffffff168273ffffffffffffffffffffffffffffffffffffffff161415612620576040517f08c379a00000000000000000000000000000000000000000000000000000000081526004018080602001828103825260228152602001806132d26022913960400191505060405180910390fd5b80600160008573ffffffffffffffffffffffffffffffffffffffff1673ffffffffffffffffffffffffffffffffffffffff16815260200190815260200160002060008473ffffffffffffffffffffffffffffffffffffffff1673ffffffffffffffffffffffffffffffffffffffff168152602001908152602001600020819055508173ffffffffffffffffffffffffffffffffffffffff168373ffffffffffffffffffffffffffffffffffffffff167f8c5be1e5ebec7d5bd14f71427d1e84f3dd0314c0f7b2291e5b200ac8c7c3b925836040518082815260200191505060405180910390a3505050565b600080828401905083811015612789576040517f08c379a000000000000000000000000000000000000000000000000000000000815260040180806020018281038252601b8152602001807f536166654d6174683a206164646974696f6e206f766572666c6f77000000000081525060200191505060405180910390fd5b8091505092915050565b600073ffffffffffffffffffffffffffffffffffffffff168273ffffffffffffffffffffffffffffffffffffffff161415612836576040517f08c379a000000000000000000000000000000000000000000000000000000000815260040180806020018281038252601f8152602001807f45524332303a206d696e7420746f20746865207a65726f20616464726573730081525060200191505060405180910390fd5b61284260008383613173565b6128578160025461270b90919063ffffffff16565b6002819055506128ae816000808573ffffffffffffffffffffffffffffffffffffffff1673ffffffffffffffffffffffffffffffffffffffff1681526020019081526020016000205461270b90919063ffffffff16565b6000808473ffffffffffffffffffffffffffffffffffffffff1673ffffffffffffffffffffffffffffffffffffffff168152602001908152602001600020819055508173ffffffffffffffffffffffffffffffffffffffff16600073ffffffffffffffffffffffffffffffffffffffff167fddf252ad1be2c89b69c2b068fc378daa952ba7f163c4a11628f55a4df523b3ef836040518082815260200191505060405180910390a35050565b600073ffffffffffffffffffffffffffffffffffffffff168273ffffffffffffffffffffffffffffffffffffffff1614156129e0576040517f08c379a00000000000000000000000000000000000000000000000000000000081526004018080602001828103825260218152602001806133b86021913960400191505060405180910390fd5b6129ec82600083613173565b612a578160405180606001604052806022815260200161328a602291396000808673ffffffffffffffffffffffffffffffffffffffff1673ffffffffffffffffffffffffffffffffffffffff16815260200190815260200160002054612e5a9092919063ffffffff16565b6000808473ffffffffffffffffffffffffffffffffffffffff1673ffffffffffffffffffffffffffffffffffffffff16815260200190815260200160002081905550612aae81600254612f1a90919063ffffffff16565b600281905550600073ffffffffffffffffffffffffffffffffffffffff168273ffffffffffffffffffffffffffffffffffffffff167fddf252ad1be2c89b69c2b068fc378daa952ba7f163c4a11628f55a4df523b3ef836040518082815260200191505060405180910390a35050565b6000612b2982612258565b50905080612b95576006829080600181540180825580915050600190039060005260206000200160009091909190916101000a81548173ffffffffffffffffffffffffffffffffffffffff021916908373ffffffffffffffffffffffffffffffffffffffff1602179055505b5050565b600073ffffffffffffffffffffffffffffffffffffffff168373ffffffffffffffffffffffffffffffffffffffff161415612c1f576040517f08c379a00000000000000000000000000000000000000000000000000000000081526004018080602001828103825260258152602001806133d96025913960400191505060405180910390fd5b600073ffffffffffffffffffffffffffffffffffffffff168273ffffffffffffffffffffffffffffffffffffffff161415612ca5576040517f08c379a00000000000000000000000000000000000000000000000000000000081526004018080602001828103825260238152602001806132676023913960400191505060405180910390fd5b612cb0838383613173565b612d1b816040518060600160405280602681526020016132f4602691396000808773ffffffffffffffffffffffffffffffffffffffff1673ffffffffffffffffffffffffffffffffffffffff16815260200190815260200160002054612e5a9092919063ffffffff16565b6000808573ffffffffffffffffffffffffffffffffffffffff1673ffffffffffffffffffffffffffffffffffffffff16815260200190815260200160002081905550612dae816000808573ffffffffffffffffffffffffffffffffffffffff1673ffffffffffffffffffffffffffffffffffffffff1681526020019081526020016000205461270b90919063ffffffff16565b6000808473ffffffffffffffffffffffffffffffffffffffff1673ffffffffffffffffffffffffffffffffffffffff168152602001908152602001600020819055508173ffffffffffffffffffffffffffffffffffffffff168373ffffffffffffffffffffffffffffffffffffffff167fddf252ad1be2c89b69c2b068fc378daa952ba7f163c4a11628f55a4df523b3ef836040518082815260200191505060405180910390a3505050565b6000838311158290612f07576040517f08c379a00000000000000000000000000000000000000000000000000000000081526004018080602001828103825283818151815260200191508051906020019080838360005b83811015612ecc578082015181840152602081019050612eb1565b50505050905090810190601f168015612ef95780820380516001836020036101000a031916815260200191505b509250505060405180910390fd5b5060008385039050809150509392505050565b6000612f5c83836040518060400160405280601e81526020017f536166654d6174683a207375627472616374696f6e206f766572666c6f770000815250612e5a565b905092915050565b600080612f7083612258565b91509150811561305057600660016006805490500381548110612f8f57fe5b9060005260206000200160009054906101000a900473ffffffffffffffffffffffffffffffffffffffff1660068281548110612fc757fe5b9060005260206000200160006101000a81548173ffffffffffffffffffffffffffffffffffffffff021916908373ffffffffffffffffffffffffffffffffffffffff160217905550600680548061301a57fe5b6001900381819060005260206000200160006101000a81549073ffffffffffffffffffffffffffffffffffffffff021916905590555b505050565b6000600860003373ffffffffffffffffffffffffffffffffffffffff1673ffffffffffffffffffffffffffffffffffffffff1681526020019081526020016000205490506000600860003373ffffffffffffffffffffffffffffffffffffffff1673ffffffffffffffffffffffffffffffffffffffff1681526020019081526020016000208190555060008114156130ed5750613171565b61311a600960009054906101000a900473ffffffffffffffffffffffffffffffffffffffff163383613178565b61316f576040517f08c379a000000000000000000000000000000000000000000000000000000000815260040180806020018281038252603381526020018061331a6033913960400191505060405180910390fd5b505b565b505050565b60008084905060008173ffffffffffffffffffffffffffffffffffffffff1663a9059cbb86866040518363ffffffff1660e01b8152600401808373ffffffffffffffffffffffffffffffffffffffff16815260200182815260200192505050602060405180830381600087803b1580156131f157600080fd5b505af1158015613205573d6000803e3d6000fd5b505050506040513d602081101561321b57600080fd5b8101908080519060200190929190505050503d60008114613243576020811461324d57600080fd5b6000199150613259565b60206000803e60005191505b508092505050939250505056fe45524332303a207472616e7366657220746f20746865207a65726f206164647265737345524332303a206275726e20616d6f756e7420657863656564732062616c616e63654f776e61626c653a206e6577206f776e657220697320746865207a65726f206164647265737345524332303a20617070726f766520746f20746865207a65726f206164647265737345524332303a207472616e7366657220616d6f756e7420657863656564732062616c616e63657472616e736665724665653a20546f6b656e207472616e73666572206f7574206f6620636f6e7472616374206661696c65642e45524332303a207472616e7366657220616d6f756e74206578636565647320616c6c6f77616e636542617463685374616b65686f6c646572416464526577617264733a205f7374616b65686f6c646572732e6c656e67746820213d205f726577617264732e6c656e67746845524332303a206275726e2066726f6d20746865207a65726f206164647265737345524332303a207472616e736665722066726f6d20746865207a65726f206164647265737345524332303a20617070726f76652066726f6d20746865207a65726f206164647265737342617463685374616b65686f6c646572537562526577617264733a205f7374616b65686f6c646572732e6c656e67746820213d205f726577617264732e6c656e67746845524332303a2064656372656173656420616c6c6f77616e63652062656c6f77207a65726fa26469706673582212203c206221d58e88659d72f73125ad297c10222f72187952fb78adc811fe5460fd64736f6c634300060c0033",
  "compiler": {
    "name": "solc",
    "version": "0.6.12+commit.27d51765.Emscripten.clang",
    "optimizer": {
      "enabled": false,
      "runs": 200
    },
    "evmVersion": "petersburg"
  }
}